{
  "_format": "hh-sol-artifact-1",
  "contractName": "WaifuClanGenesis",
  "sourceName": "contracts/Waifu.sol",
  "abi": [
    {
      "inputs": [],
      "stateMutability": "nonpayable",
      "type": "constructor"
    },
    {
      "inputs": [],
      "name": "ApprovalCallerNotOwnerNorApproved",
      "type": "error"
    },
    {
      "inputs": [],
      "name": "ApprovalQueryForNonexistentToken",
      "type": "error"
    },
    {
      "inputs": [],
      "name": "ApproveToCaller",
      "type": "error"
    },
    {
      "inputs": [],
      "name": "BalanceQueryForZeroAddress",
      "type": "error"
    },
    {
      "inputs": [],
      "name": "MintERC2309QuantityExceedsLimit",
      "type": "error"
    },
    {
      "inputs": [],
      "name": "MintToZeroAddress",
      "type": "error"
    },
    {
      "inputs": [],
      "name": "MintZeroQuantity",
      "type": "error"
    },
    {
      "inputs": [],
      "name": "OwnerQueryForNonexistentToken",
      "type": "error"
    },
    {
      "inputs": [],
      "name": "OwnershipNotInitializedForExtraData",
      "type": "error"
    },
    {
      "inputs": [],
      "name": "TransferCallerNotOwnerNorApproved",
      "type": "error"
    },
    {
      "inputs": [],
      "name": "TransferFromIncorrectOwner",
      "type": "error"
    },
    {
      "inputs": [],
      "name": "TransferToNonERC721ReceiverImplementer",
      "type": "error"
    },
    {
      "inputs": [],
      "name": "TransferToZeroAddress",
      "type": "error"
    },
    {
      "inputs": [],
      "name": "URIQueryForNonexistentToken",
      "type": "error"
    },
    {
      "anonymous": false,
      "inputs": [
        {
          "indexed": true,
          "internalType": "address",
          "name": "owner",
          "type": "address"
        },
        {
          "indexed": true,
          "internalType": "address",
          "name": "approved",
          "type": "address"
        },
        {
          "indexed": true,
          "internalType": "uint256",
          "name": "tokenId",
          "type": "uint256"
        }
      ],
      "name": "Approval",
      "type": "event"
    },
    {
      "anonymous": false,
      "inputs": [
        {
          "indexed": true,
          "internalType": "address",
          "name": "owner",
          "type": "address"
        },
        {
          "indexed": true,
          "internalType": "address",
          "name": "operator",
          "type": "address"
        },
        {
          "indexed": false,
          "internalType": "bool",
          "name": "approved",
          "type": "bool"
        }
      ],
      "name": "ApprovalForAll",
      "type": "event"
    },
    {
      "anonymous": false,
      "inputs": [
        {
          "indexed": true,
          "internalType": "uint256",
          "name": "fromTokenId",
          "type": "uint256"
        },
        {
          "indexed": false,
          "internalType": "uint256",
          "name": "toTokenId",
          "type": "uint256"
        },
        {
          "indexed": true,
          "internalType": "address",
          "name": "from",
          "type": "address"
        },
        {
          "indexed": true,
          "internalType": "address",
          "name": "to",
          "type": "address"
        }
      ],
      "name": "ConsecutiveTransfer",
      "type": "event"
    },
    {
      "anonymous": false,
      "inputs": [
        {
          "indexed": true,
          "internalType": "address",
          "name": "previousOwner",
          "type": "address"
        },
        {
          "indexed": true,
          "internalType": "address",
          "name": "newOwner",
          "type": "address"
        }
      ],
      "name": "OwnershipTransferred",
      "type": "event"
    },
    {
      "anonymous": false,
      "inputs": [
        {
          "indexed": false,
          "internalType": "address",
          "name": "account",
          "type": "address"
        }
      ],
      "name": "Paused",
      "type": "event"
    },
    {
      "anonymous": false,
      "inputs": [
        {
          "indexed": true,
          "internalType": "address",
          "name": "from",
          "type": "address"
        },
        {
          "indexed": true,
          "internalType": "address",
          "name": "to",
          "type": "address"
        },
        {
          "indexed": true,
          "internalType": "uint256",
          "name": "tokenId",
          "type": "uint256"
        }
      ],
      "name": "Transfer",
      "type": "event"
    },
    {
      "anonymous": false,
      "inputs": [
        {
          "indexed": false,
          "internalType": "address",
          "name": "account",
          "type": "address"
        }
      ],
      "name": "Unpaused",
      "type": "event"
    },
    {
      "inputs": [],
      "name": "FREE_MINT_LIMIT",
      "outputs": [
        {
          "internalType": "uint256",
          "name": "",
          "type": "uint256"
        }
      ],
      "stateMutability": "view",
      "type": "function"
    },
    {
      "inputs": [],
      "name": "MAX_SUPPLY",
      "outputs": [
        {
          "internalType": "uint256",
          "name": "",
          "type": "uint256"
        }
      ],
      "stateMutability": "view",
      "type": "function"
    },
    {
      "inputs": [
        {
          "internalType": "address",
          "name": "to",
          "type": "address"
        },
        {
          "internalType": "uint256",
          "name": "tokenId",
          "type": "uint256"
        }
      ],
      "name": "approve",
      "outputs": [],
      "stateMutability": "nonpayable",
      "type": "function"
    },
    {
      "inputs": [
        {
          "internalType": "address",
          "name": "owner",
          "type": "address"
        }
      ],
      "name": "balanceOf",
      "outputs": [
        {
          "internalType": "uint256",
          "name": "",
          "type": "uint256"
        }
      ],
      "stateMutability": "view",
      "type": "function"
    },
    {
      "inputs": [],
      "name": "baseUri",
      "outputs": [
        {
          "internalType": "string",
          "name": "",
          "type": "string"
        }
      ],
      "stateMutability": "view",
      "type": "function"
    },
    {
      "inputs": [],
      "name": "canUserMint",
      "outputs": [
        {
          "internalType": "bool",
          "name": "",
          "type": "bool"
        }
      ],
      "stateMutability": "view",
      "type": "function"
    },
    {
      "inputs": [],
      "name": "changeMintingStatus",
      "outputs": [],
      "stateMutability": "nonpayable",
      "type": "function"
    },
    {
      "inputs": [
        {
          "internalType": "address",
          "name": "",
          "type": "address"
        }
      ],
      "name": "freeMintedCount",
      "outputs": [
        {
          "internalType": "uint256",
          "name": "",
          "type": "uint256"
        }
      ],
      "stateMutability": "view",
      "type": "function"
    },
    {
      "inputs": [
        {
          "internalType": "uint256",
          "name": "tokenId",
          "type": "uint256"
        }
      ],
      "name": "getApproved",
      "outputs": [
        {
          "internalType": "address",
          "name": "",
          "type": "address"
        }
      ],
      "stateMutability": "view",
      "type": "function"
    },
    {
      "inputs": [],
      "name": "getNextTokenId",
      "outputs": [
        {
          "internalType": "uint256",
          "name": "",
          "type": "uint256"
        }
      ],
      "stateMutability": "view",
      "type": "function"
    },
    {
      "inputs": [
        {
          "internalType": "address",
          "name": "owner",
          "type": "address"
        },
        {
          "internalType": "address",
          "name": "operator",
          "type": "address"
        }
      ],
      "name": "isApprovedForAll",
      "outputs": [
        {
          "internalType": "bool",
          "name": "",
          "type": "bool"
        }
      ],
      "stateMutability": "view",
      "type": "function"
    },
    {
      "inputs": [
        {
          "internalType": "uint256",
          "name": "quantity",
          "type": "uint256"
        }
      ],
      "name": "mint",
      "outputs": [],
      "stateMutability": "nonpayable",
      "type": "function"
    },
    {
      "inputs": [],
      "name": "name",
      "outputs": [
        {
          "internalType": "string",
          "name": "",
          "type": "string"
        }
      ],
      "stateMutability": "view",
      "type": "function"
    },
    {
      "inputs": [],
      "name": "owner",
      "outputs": [
        {
          "internalType": "address",
          "name": "",
          "type": "address"
        }
      ],
      "stateMutability": "view",
      "type": "function"
    },
    {
      "inputs": [
        {
          "internalType": "uint256",
          "name": "tokenId",
          "type": "uint256"
        }
      ],
      "name": "ownerOf",
      "outputs": [
        {
          "internalType": "address",
          "name": "",
          "type": "address"
        }
      ],
      "stateMutability": "view",
      "type": "function"
    },
    {
      "inputs": [],
      "name": "paused",
      "outputs": [
        {
          "internalType": "bool",
          "name": "",
          "type": "bool"
        }
      ],
      "stateMutability": "view",
      "type": "function"
    },
    {
      "inputs": [],
      "name": "renounceOwnership",
      "outputs": [],
      "stateMutability": "nonpayable",
      "type": "function"
    },
    {
      "inputs": [],
      "name": "reveal",
      "outputs": [],
      "stateMutability": "nonpayable",
      "type": "function"
    },
    {
      "inputs": [],
      "name": "revealState",
      "outputs": [
        {
          "internalType": "bool",
          "name": "",
          "type": "bool"
        }
      ],
      "stateMutability": "view",
      "type": "function"
    },
    {
      "inputs": [
        {
          "internalType": "uint256",
          "name": "_tokenId",
          "type": "uint256"
        },
        {
          "internalType": "uint256",
          "name": "_salePrice",
          "type": "uint256"
        }
      ],
      "name": "royaltyInfo",
      "outputs": [
        {
          "internalType": "address",
          "name": "",
          "type": "address"
        },
        {
          "internalType": "uint256",
          "name": "",
          "type": "uint256"
        }
      ],
      "stateMutability": "view",
      "type": "function"
    },
    {
      "inputs": [
        {
          "internalType": "address",
          "name": "from",
          "type": "address"
        },
        {
          "internalType": "address",
          "name": "to",
          "type": "address"
        },
        {
          "internalType": "uint256",
          "name": "tokenId",
          "type": "uint256"
        }
      ],
      "name": "safeTransferFrom",
      "outputs": [],
      "stateMutability": "nonpayable",
      "type": "function"
    },
    {
      "inputs": [
        {
          "internalType": "address",
          "name": "from",
          "type": "address"
        },
        {
          "internalType": "address",
          "name": "to",
          "type": "address"
        },
        {
          "internalType": "uint256",
          "name": "tokenId",
          "type": "uint256"
        },
        {
          "internalType": "bytes",
          "name": "_data",
          "type": "bytes"
        }
      ],
      "name": "safeTransferFrom",
      "outputs": [],
      "stateMutability": "nonpayable",
      "type": "function"
    },
    {
      "inputs": [
        {
          "internalType": "address",
          "name": "operator",
          "type": "address"
        },
        {
          "internalType": "bool",
          "name": "approved",
          "type": "bool"
        }
      ],
      "name": "setApprovalForAll",
      "outputs": [],
      "stateMutability": "nonpayable",
      "type": "function"
    },
    {
      "inputs": [
        {
          "internalType": "string",
          "name": "_baseUri",
          "type": "string"
        }
      ],
      "name": "setBaseUri",
      "outputs": [],
      "stateMutability": "nonpayable",
      "type": "function"
    },
    {
      "inputs": [
        {
          "internalType": "address",
          "name": "_royaltyWallet",
          "type": "address"
        }
      ],
      "name": "setRoyaltiesWalletAddress",
      "outputs": [],
      "stateMutability": "nonpayable",
      "type": "function"
    },
    {
      "inputs": [
        {
          "internalType": "bytes4",
          "name": "interfaceId",
          "type": "bytes4"
        }
      ],
      "name": "supportsInterface",
      "outputs": [
        {
          "internalType": "bool",
          "name": "",
          "type": "bool"
        }
      ],
      "stateMutability": "view",
      "type": "function"
    },
    {
      "inputs": [],
      "name": "symbol",
      "outputs": [
        {
          "internalType": "string",
          "name": "",
          "type": "string"
        }
      ],
      "stateMutability": "view",
      "type": "function"
    },
    {
      "inputs": [
        {
          "internalType": "uint256",
          "name": "tokenId",
          "type": "uint256"
        }
      ],
      "name": "tokenURI",
      "outputs": [
        {
          "internalType": "string",
          "name": "",
          "type": "string"
        }
      ],
      "stateMutability": "view",
      "type": "function"
    },
    {
      "inputs": [],
      "name": "totalSupply",
      "outputs": [
        {
          "internalType": "uint256",
          "name": "",
          "type": "uint256"
        }
      ],
      "stateMutability": "view",
      "type": "function"
    },
    {
      "inputs": [
        {
          "internalType": "address",
          "name": "from",
          "type": "address"
        },
        {
          "internalType": "address",
          "name": "to",
          "type": "address"
        },
        {
          "internalType": "uint256",
          "name": "tokenId",
          "type": "uint256"
        }
      ],
      "name": "transferFrom",
      "outputs": [],
      "stateMutability": "nonpayable",
      "type": "function"
    },
    {
      "inputs": [
        {
          "internalType": "address",
          "name": "newOwner",
          "type": "address"
        }
      ],
      "name": "transferOwnership",
      "outputs": [],
      "stateMutability": "nonpayable",
      "type": "function"
    }
  ],
  "bytecode": "0x6080604052736f51f5715f72e9c2200ec6a6fe9942023fbe7bc3600d60006101000a81548173ffffffffffffffffffffffffffffffffffffffff021916908373ffffffffffffffffffffffffffffffffffffffff1602179055503480156200006657600080fd5b506040518060400160405280601181526020017f5761696675436c616e2047656e657369730000000000000000000000000000008152506040518060400160405280600381526020017f57434700000000000000000000000000000000000000000000000000000000008152508160029080519060200190620000eb92919062000538565b5080600390805190602001906200010492919062000538565b5062000115620001d660201b60201c565b60008190555050506200013d62000131620001db60201b60201c565b620001e360201b60201c565b6000600a60146101000a81548160ff0219169083151502179055506200018e600d60009054906101000a900473ffffffffffffffffffffffffffffffffffffffff166103e8620002a960201b60201c565b60405180608001604052806044815260200162003a8960449139600c9080519060200190620001bf92919062000538565b50620001d06200044d60201b60201c565b6200083c565b600090565b600033905090565b6000600a60009054906101000a900473ffffffffffffffffffffffffffffffffffffffff16905081600a60006101000a81548173ffffffffffffffffffffffffffffffffffffffff021916908373ffffffffffffffffffffffffffffffffffffffff1602179055508173ffffffffffffffffffffffffffffffffffffffff168173ffffffffffffffffffffffffffffffffffffffff167f8be0079c531659141344cd1fd0a4f28419497f9722a3daafe3b4186f6b6457e060405160405180910390a35050565b620002b9620004c260201b60201c565b6bffffffffffffffffffffffff16816bffffffffffffffffffffffff1611156200031a576040517f08c379a000000000000000000000000000000000000000000000000000000000815260040162000311906200066f565b60405180910390fd5b600073ffffffffffffffffffffffffffffffffffffffff168273ffffffffffffffffffffffffffffffffffffffff1614156200038d576040517f08c379a00000000000000000000000000000000000000000000000000000000081526004016200038490620006e1565b60405180910390fd5b60405180604001604052808373ffffffffffffffffffffffffffffffffffffffff168152602001826bffffffffffffffffffffffff16815250600860008201518160000160006101000a81548173ffffffffffffffffffffffffffffffffffffffff021916908373ffffffffffffffffffffffffffffffffffffffff16021790555060208201518160000160146101000a8154816bffffffffffffffffffffffff02191690836bffffffffffffffffffffffff1602179055509050505050565b6200045d620004cc60201b60201c565b6001600a60146101000a81548160ff0219169083151502179055507f62e78cea01bee320cd4e420270b5ea74000d11b0c9f74754ebdbfc544b05a258620004a9620001db60201b60201c565b604051620004b8919062000748565b60405180910390a1565b6000612710905090565b620004dc6200052160201b60201c565b156200051f576040517f08c379a00000000000000000000000000000000000000000000000000000000081526004016200051690620007b5565b60405180910390fd5b565b6000600a60149054906101000a900460ff16905090565b828054620005469062000806565b90600052602060002090601f0160209004810192826200056a5760008555620005b6565b82601f106200058557805160ff1916838001178555620005b6565b82800160010185558215620005b6579182015b82811115620005b557825182559160200191906001019062000598565b5b509050620005c59190620005c9565b5090565b5b80821115620005e4576000816000905550600101620005ca565b5090565b600082825260208201905092915050565b7f455243323938313a20726f79616c7479206665652077696c6c2065786365656460008201527f2073616c65507269636500000000000000000000000000000000000000000000602082015250565b600062000657602a83620005e8565b91506200066482620005f9565b604082019050919050565b600060208201905081810360008301526200068a8162000648565b9050919050565b7f455243323938313a20696e76616c696420726563656976657200000000000000600082015250565b6000620006c9601983620005e8565b9150620006d68262000691565b602082019050919050565b60006020820190508181036000830152620006fc81620006ba565b9050919050565b600073ffffffffffffffffffffffffffffffffffffffff82169050919050565b6000620007308262000703565b9050919050565b620007428162000723565b82525050565b60006020820190506200075f600083018462000737565b92915050565b7f5061757361626c653a2070617573656400000000000000000000000000000000600082015250565b60006200079d601083620005e8565b9150620007aa8262000765565b602082019050919050565b60006020820190508181036000830152620007d0816200078e565b9050919050565b7f4e487b7100000000000000000000000000000000000000000000000000000000600052602260045260246000fd5b600060028204905060018216806200081f57607f821691505b60208210811415620008365762000835620007d7565b5b50919050565b61323d806200084c6000396000f3fe608060405234801561001057600080fd5b50600436106101e55760003560e01c80638da5cb5b1161010f578063a7048ae1116100a2578063d0dc8bfd11610071578063d0dc8bfd1461055b578063d958b8ff14610579578063e985e9c514610583578063f2fde38b146105b3576101e5565b8063a7048ae1146104d3578063b88d4fde146104f1578063c87b56dd1461050d578063caa0f92a1461053d576101e5565b8063a0712d68116100de578063a0712d6814610475578063a0bcfc7f14610491578063a22cb465146104ad578063a475b5dd146104c9576101e5565b80638da5cb5b146103eb57806395d89b411461040957806398133235146104275780639abc832014610457576101e5565b806323b872dd116101875780635c975abb116101565780635c975abb146103635780636352211e1461038157806370a08231146103b1578063715018a6146103e1576101e5565b806323b872dd146102dc5780632a55205a146102f857806332cb6b0c1461032957806342842e0e14610347576101e5565b8063095ea7b3116101c3578063095ea7b314610268578063131f5d05146102845780631772f1e1146102a257806318160ddd146102be576101e5565b806301ffc9a7146101ea57806306fdde031461021a578063081812fc14610238575b600080fd5b61020460048036038101906101ff91906122c5565b6105cf565b604051610211919061230d565b60405180910390f35b6102226105e1565b60405161022f91906123c1565b60405180910390f35b610252600480360381019061024d9190612419565b610673565b60405161025f9190612487565b60405180910390f35b610282600480360381019061027d91906124ce565b6106f2565b005b61028c610836565b604051610299919061230d565b60405180910390f35b6102bc60048036038101906102b7919061250e565b610849565b005b6102c6610860565b6040516102d3919061254a565b60405180910390f35b6102f660048036038101906102f19190612565565b610877565b005b610312600480360381019061030d91906125b8565b610b9c565b6040516103209291906125f8565b60405180910390f35b610331610d87565b60405161033e919061254a565b60405180910390f35b610361600480360381019061035c9190612565565b610d8d565b005b61036b610dad565b604051610378919061230d565b60405180910390f35b61039b60048036038101906103969190612419565b610dc4565b6040516103a89190612487565b60405180910390f35b6103cb60048036038101906103c6919061250e565b610dd6565b6040516103d8919061254a565b60405180910390f35b6103e9610e8f565b005b6103f3610ea3565b6040516104009190612487565b60405180910390f35b610411610ecd565b60405161041e91906123c1565b60405180910390f35b610441600480360381019061043c919061250e565b610f5f565b60405161044e919061254a565b60405180910390f35b61045f610f77565b60405161046c91906123c1565b60405180910390f35b61048f600480360381019061048a9190612419565b611005565b005b6104ab60048036038101906104a69190612756565b6111e1565b005b6104c760048036038101906104c291906127cb565b611203565b005b6104d161137b565b005b6104db6113f0565b6040516104e8919061254a565b60405180910390f35b61050b600480360381019061050691906128ac565b6113f5565b005b61052760048036038101906105229190612419565b611468565b60405161053491906123c1565b60405180910390f35b6105456115bb565b604051610552919061254a565b60405180910390f35b6105636115ca565b604051610570919061230d565b60405180910390f35b6105816115dd565b005b61059d6004803603810190610598919061292f565b611632565b6040516105aa919061230d565b60405180910390f35b6105cd60048036038101906105c8919061250e565b6116c6565b005b60006105da8261174a565b9050919050565b6060600280546105f09061299e565b80601f016020809104026020016040519081016040528092919081815260200182805461061c9061299e565b80156106695780601f1061063e57610100808354040283529160200191610669565b820191906000526020600020905b81548152906001019060200180831161064c57829003601f168201915b5050505050905090565b600061067e826117c4565b6106b4576040517fcf4700e400000000000000000000000000000000000000000000000000000000815260040160405180910390fd5b6006600083815260200190815260200160002060000160009054906101000a900473ffffffffffffffffffffffffffffffffffffffff169050919050565b60006106fd82610dc4565b90508073ffffffffffffffffffffffffffffffffffffffff1661071e611823565b73ffffffffffffffffffffffffffffffffffffffff16146107815761074a81610745611823565b611632565b610780576040517fcfb3b94200000000000000000000000000000000000000000000000000000000815260040160405180910390fd5b5b826006600084815260200190815260200160002060000160006101000a81548173ffffffffffffffffffffffffffffffffffffffff021916908373ffffffffffffffffffffffffffffffffffffffff160217905550818373ffffffffffffffffffffffffffffffffffffffff168273ffffffffffffffffffffffffffffffffffffffff167f8c5be1e5ebec7d5bd14f71427d1e84f3dd0314c0f7b2291e5b200ac8c7c3b92560405160405180910390a4505050565b600d60149054906101000a900460ff1681565b61085161182b565b61085d816103e86118a9565b50565b600061086a611a3f565b6001546000540303905090565b600061088282611a44565b90508373ffffffffffffffffffffffffffffffffffffffff168173ffffffffffffffffffffffffffffffffffffffff16146108e9576040517fa114810000000000000000000000000000000000000000000000000000000000815260040160405180910390fd5b6000806108f584611b12565b9150915061090b8187610906611823565b611b39565b610957576109208661091b611823565b611632565b610956576040517f59c896be00000000000000000000000000000000000000000000000000000000815260040160405180910390fd5b5b600073ffffffffffffffffffffffffffffffffffffffff168573ffffffffffffffffffffffffffffffffffffffff1614156109be576040517fea553b3400000000000000000000000000000000000000000000000000000000815260040160405180910390fd5b6109cb8686866001611b7d565b80156109d657600082555b600560008773ffffffffffffffffffffffffffffffffffffffff1673ffffffffffffffffffffffffffffffffffffffff168152602001908152602001600020600081546001900391905081905550600560008673ffffffffffffffffffffffffffffffffffffffff1673ffffffffffffffffffffffffffffffffffffffff1681526020019081526020016000206000815460010191905081905550610aa485610a80888887611b83565b7c020000000000000000000000000000000000000000000000000000000017611bab565b600460008681526020019081526020016000208190555060007c020000000000000000000000000000000000000000000000000000000084161415610b2c576000600185019050600060046000838152602001908152602001600020541415610b2a576000548114610b29578360046000838152602001908152602001600020819055505b5b505b838573ffffffffffffffffffffffffffffffffffffffff168773ffffffffffffffffffffffffffffffffffffffff167fddf252ad1be2c89b69c2b068fc378daa952ba7f163c4a11628f55a4df523b3ef60405160405180910390a4610b948686866001611bd6565b505050505050565b6000806000600960008681526020019081526020016000206040518060400160405290816000820160009054906101000a900473ffffffffffffffffffffffffffffffffffffffff1673ffffffffffffffffffffffffffffffffffffffff1673ffffffffffffffffffffffffffffffffffffffff1681526020016000820160149054906101000a90046bffffffffffffffffffffffff166bffffffffffffffffffffffff166bffffffffffffffffffffffff16815250509050600073ffffffffffffffffffffffffffffffffffffffff16816000015173ffffffffffffffffffffffffffffffffffffffff161415610d325760086040518060400160405290816000820160009054906101000a900473ffffffffffffffffffffffffffffffffffffffff1673ffffffffffffffffffffffffffffffffffffffff1673ffffffffffffffffffffffffffffffffffffffff1681526020016000820160149054906101000a90046bffffffffffffffffffffffff166bffffffffffffffffffffffff166bffffffffffffffffffffffff168152505090505b6000610d3c611bdc565b6bffffffffffffffffffffffff1682602001516bffffffffffffffffffffffff1686610d6891906129ff565b610d729190612a88565b90508160000151819350935050509250929050565b6103e881565b610da8838383604051806020016040528060008152506113f5565b505050565b6000600a60149054906101000a900460ff16905090565b6000610dcf82611a44565b9050919050565b60008073ffffffffffffffffffffffffffffffffffffffff168273ffffffffffffffffffffffffffffffffffffffff161415610e3e576040517f8f4eb60400000000000000000000000000000000000000000000000000000000815260040160405180910390fd5b67ffffffffffffffff600560008473ffffffffffffffffffffffffffffffffffffffff1673ffffffffffffffffffffffffffffffffffffffff16815260200190815260200160002054169050919050565b610e9761182b565b610ea16000611be6565b565b6000600a60009054906101000a900473ffffffffffffffffffffffffffffffffffffffff16905090565b606060038054610edc9061299e565b80601f0160208091040260200160405190810160405280929190818152602001828054610f089061299e565b8015610f555780601f10610f2a57610100808354040283529160200191610f55565b820191906000526020600020905b815481529060010190602001808311610f3857829003601f168201915b5050505050905090565b600b6020528060005260406000206000915090505481565b600c8054610f849061299e565b80601f0160208091040260200160405190810160405280929190818152602001828054610fb09061299e565b8015610ffd5780601f10610fd257610100808354040283529160200191610ffd565b820191906000526020600020905b815481529060010190602001808311610fe057829003601f168201915b505050505081565b8060008111611049576040517f08c379a000000000000000000000000000000000000000000000000000000000815260040161104090612b05565b60405180910390fd5b6103e881611055610860565b61105f9190612b25565b11156110a0576040517f08c379a000000000000000000000000000000000000000000000000000000000815260040161109790612bc7565b60405180910390fd5b601481600b60003373ffffffffffffffffffffffffffffffffffffffff1673ffffffffffffffffffffffffffffffffffffffff168152602001908152602001600020546110ed9190612b25565b111561112e576040517f08c379a000000000000000000000000000000000000000000000000000000000815260040161112590612c33565b60405180910390fd5b600d60159054906101000a900460ff1661117d576040517f08c379a000000000000000000000000000000000000000000000000000000000815260040161117490612c9f565b60405180910390fd5b6111873383611cac565b81600b60003373ffffffffffffffffffffffffffffffffffffffff1673ffffffffffffffffffffffffffffffffffffffff16815260200190815260200160002060008282546111d69190612b25565b925050819055505050565b6111e961182b565b80600c90805190602001906111ff9291906121b6565b5050565b61120b611823565b73ffffffffffffffffffffffffffffffffffffffff168273ffffffffffffffffffffffffffffffffffffffff161415611270576040517fb06307db00000000000000000000000000000000000000000000000000000000815260040160405180910390fd5b806007600061127d611823565b73ffffffffffffffffffffffffffffffffffffffff1673ffffffffffffffffffffffffffffffffffffffff16815260200190815260200160002060008473ffffffffffffffffffffffffffffffffffffffff1673ffffffffffffffffffffffffffffffffffffffff16815260200190815260200160002060006101000a81548160ff0219169083151502179055508173ffffffffffffffffffffffffffffffffffffffff1661132a611823565b73ffffffffffffffffffffffffffffffffffffffff167f17307eab39ab6107e8899845ad3d59bd9653f200f220920489ca2b5937696c318360405161136f919061230d565b60405180910390a35050565b61138361182b565b600d60149054906101000a900460ff16156113d3576040517f08c379a00000000000000000000000000000000000000000000000000000000081526004016113ca90612d0b565b60405180910390fd5b6001600d60146101000a81548160ff021916908315150217905550565b601481565b611400848484610877565b60008373ffffffffffffffffffffffffffffffffffffffff163b146114625761142b84848484611e69565b611461576040517fd1a57ed600000000000000000000000000000000000000000000000000000000815260040160405180910390fd5b5b50505050565b6060611473826117c4565b6114b2576040517f08c379a00000000000000000000000000000000000000000000000000000000081526004016114a990612d77565b60405180910390fd5b60006040518060800160405280604481526020016131c460449139905060006040518060800160405280604481526020016131806044913990506000806002866114fc9190612d97565b146115075782611509565b815b9050600d60149054906101000a900460ff166115af57600c805461152c9061299e565b80601f01602080910402602001604051908101604052809291908181526020018280546115589061299e565b80156115a55780601f1061157a576101008083540402835291602001916115a5565b820191906000526020600020905b81548152906001019060200180831161158857829003601f168201915b50505050506115b1565b805b9350505050919050565b60006115c5611fc9565b905090565b600d60159054906101000a900460ff1681565b6115e561182b565b6000600d60159054906101000a900460ff1690508061160b57611606611fd2565b611614565b611613612035565b5b8015600d60156101000a81548160ff02191690831515021790555050565b6000600760008473ffffffffffffffffffffffffffffffffffffffff1673ffffffffffffffffffffffffffffffffffffffff16815260200190815260200160002060008373ffffffffffffffffffffffffffffffffffffffff1673ffffffffffffffffffffffffffffffffffffffff16815260200190815260200160002060009054906101000a900460ff16905092915050565b6116ce61182b565b600073ffffffffffffffffffffffffffffffffffffffff168173ffffffffffffffffffffffffffffffffffffffff16141561173e576040517f08c379a000000000000000000000000000000000000000000000000000000000815260040161173590612e3a565b60405180910390fd5b61174781611be6565b50565b60007f2a55205a000000000000000000000000000000000000000000000000000000007bffffffffffffffffffffffffffffffffffffffffffffffffffffffff1916827bffffffffffffffffffffffffffffffffffffffffffffffffffffffff191614806117bd57506117bc82612098565b5b9050919050565b6000816117cf611a3f565b111580156117de575060005482105b801561181c575060007c0100000000000000000000000000000000000000000000000000000000600460008581526020019081526020016000205416145b9050919050565b600033905090565b611833612102565b73ffffffffffffffffffffffffffffffffffffffff16611851610ea3565b73ffffffffffffffffffffffffffffffffffffffff16146118a7576040517f08c379a000000000000000000000000000000000000000000000000000000000815260040161189e90612ea6565b60405180910390fd5b565b6118b1611bdc565b6bffffffffffffffffffffffff16816bffffffffffffffffffffffff16111561190f576040517f08c379a000000000000000000000000000000000000000000000000000000000815260040161190690612f38565b60405180910390fd5b600073ffffffffffffffffffffffffffffffffffffffff168273ffffffffffffffffffffffffffffffffffffffff16141561197f576040517f08c379a000000000000000000000000000000000000000000000000000000000815260040161197690612fa4565b60405180910390fd5b60405180604001604052808373ffffffffffffffffffffffffffffffffffffffff168152602001826bffffffffffffffffffffffff16815250600860008201518160000160006101000a81548173ffffffffffffffffffffffffffffffffffffffff021916908373ffffffffffffffffffffffffffffffffffffffff16021790555060208201518160000160146101000a8154816bffffffffffffffffffffffff02191690836bffffffffffffffffffffffff1602179055509050505050565b600090565b60008082905080611a53611a3f565b11611adb57600054811015611ada5760006004600083815260200190815260200160002054905060007c010000000000000000000000000000000000000000000000000000000082161415611ad8575b6000811415611ace576004600083600190039350838152602001908152602001600020549050611aa3565b8092505050611b0d565b505b5b6040517fdf2d9b4200000000000000000000000000000000000000000000000000000000815260040160405180910390fd5b919050565b60008060006006600085815260200190815260200160002090508092508254915050915091565b600073ffffffffffffffffffffffffffffffffffffffff8316925073ffffffffffffffffffffffffffffffffffffffff821691508382148383141790509392505050565b50505050565b60008060e883901c905060e8611b9a86868461210a565b62ffffff16901b9150509392505050565b600073ffffffffffffffffffffffffffffffffffffffff83169250814260a01b178317905092915050565b50505050565b6000612710905090565b6000600a60009054906101000a900473ffffffffffffffffffffffffffffffffffffffff16905081600a60006101000a81548173ffffffffffffffffffffffffffffffffffffffff021916908373ffffffffffffffffffffffffffffffffffffffff1602179055508173ffffffffffffffffffffffffffffffffffffffff168173ffffffffffffffffffffffffffffffffffffffff167f8be0079c531659141344cd1fd0a4f28419497f9722a3daafe3b4186f6b6457e060405160405180910390a35050565b6000805490506000821415611ced576040517fb562e8dd00000000000000000000000000000000000000000000000000000000815260040160405180910390fd5b611cfa6000848385611b7d565b600160406001901b178202600560008573ffffffffffffffffffffffffffffffffffffffff1673ffffffffffffffffffffffffffffffffffffffff16815260200190815260200160002060008282540192505081905550611d7183611d626000866000611b83565b611d6b85612113565b17611bab565b6004600083815260200190815260200160002081905550600080838301905073ffffffffffffffffffffffffffffffffffffffff85169150828260007fddf252ad1be2c89b69c2b068fc378daa952ba7f163c4a11628f55a4df523b3ef600080a4600183015b818114611e1257808360007fddf252ad1be2c89b69c2b068fc378daa952ba7f163c4a11628f55a4df523b3ef600080a4600181019050611dd7565b506000821415611e4e576040517f2e07630000000000000000000000000000000000000000000000000000000000815260040160405180910390fd5b806000819055505050611e646000848385611bd6565b505050565b60008373ffffffffffffffffffffffffffffffffffffffff1663150b7a02611e8f611823565b8786866040518563ffffffff1660e01b8152600401611eb19493929190613019565b602060405180830381600087803b158015611ecb57600080fd5b505af1925050508015611efc57506040513d601f19601f82011682018060405250810190611ef9919061307a565b60015b611f76573d8060008114611f2c576040519150601f19603f3d011682016040523d82523d6000602084013e611f31565b606091505b50600081511415611f6e576040517fd1a57ed600000000000000000000000000000000000000000000000000000000815260040160405180910390fd5b805181602001fd5b63150b7a0260e01b7bffffffffffffffffffffffffffffffffffffffffffffffffffffffff1916817bffffffffffffffffffffffffffffffffffffffffffffffffffffffff191614915050949350505050565b60008054905090565b611fda612123565b6000600a60146101000a81548160ff0219169083151502179055507f5db9ee0a495bf2e6ff9c91a7834c1ba4fdd244a5e8aa4e537bd38aeae4b073aa61201e612102565b60405161202b9190612487565b60405180910390a1565b61203d61216c565b6001600a60146101000a81548160ff0219169083151502179055507f62e78cea01bee320cd4e420270b5ea74000d11b0c9f74754ebdbfc544b05a258612081612102565b60405161208e9190612487565b60405180910390a1565b60007f01ffc9a7000000000000000000000000000000000000000000000000000000007bffffffffffffffffffffffffffffffffffffffffffffffffffffffff1916827bffffffffffffffffffffffffffffffffffffffffffffffffffffffff1916149050919050565b600033905090565b60009392505050565b60006001821460e11b9050919050565b61212b610dad565b61216a576040517f08c379a0000000000000000000000000000000000000000000000000000000008152600401612161906130f3565b60405180910390fd5b565b612174610dad565b156121b4576040517f08c379a00000000000000000000000000000000000000000000000000000000081526004016121ab9061315f565b60405180910390fd5b565b8280546121c29061299e565b90600052602060002090601f0160209004810192826121e4576000855561222b565b82601f106121fd57805160ff191683800117855561222b565b8280016001018555821561222b579182015b8281111561222a57825182559160200191906001019061220f565b5b509050612238919061223c565b5090565b5b8082111561225557600081600090555060010161223d565b5090565b6000604051905090565b600080fd5b600080fd5b60007fffffffff0000000000000000000000000000000000000000000000000000000082169050919050565b6122a28161226d565b81146122ad57600080fd5b50565b6000813590506122bf81612299565b92915050565b6000602082840312156122db576122da612263565b5b60006122e9848285016122b0565b91505092915050565b60008115159050919050565b612307816122f2565b82525050565b600060208201905061232260008301846122fe565b92915050565b600081519050919050565b600082825260208201905092915050565b60005b83811015612362578082015181840152602081019050612347565b83811115612371576000848401525b50505050565b6000601f19601f8301169050919050565b600061239382612328565b61239d8185612333565b93506123ad818560208601612344565b6123b681612377565b840191505092915050565b600060208201905081810360008301526123db8184612388565b905092915050565b6000819050919050565b6123f6816123e3565b811461240157600080fd5b50565b600081359050612413816123ed565b92915050565b60006020828403121561242f5761242e612263565b5b600061243d84828501612404565b91505092915050565b600073ffffffffffffffffffffffffffffffffffffffff82169050919050565b600061247182612446565b9050919050565b61248181612466565b82525050565b600060208201905061249c6000830184612478565b92915050565b6124ab81612466565b81146124b657600080fd5b50565b6000813590506124c8816124a2565b92915050565b600080604083850312156124e5576124e4612263565b5b60006124f3858286016124b9565b925050602061250485828601612404565b9150509250929050565b60006020828403121561252457612523612263565b5b6000612532848285016124b9565b91505092915050565b612544816123e3565b82525050565b600060208201905061255f600083018461253b565b92915050565b60008060006060848603121561257e5761257d612263565b5b600061258c868287016124b9565b935050602061259d868287016124b9565b92505060406125ae86828701612404565b9150509250925092565b600080604083850312156125cf576125ce612263565b5b60006125dd85828601612404565b92505060206125ee85828601612404565b9150509250929050565b600060408201905061260d6000830185612478565b61261a602083018461253b565b9392505050565b600080fd5b600080fd5b7f4e487b7100000000000000000000000000000000000000000000000000000000600052604160045260246000fd5b61266382612377565b810181811067ffffffffffffffff821117156126825761268161262b565b5b80604052505050565b6000612695612259565b90506126a1828261265a565b919050565b600067ffffffffffffffff8211156126c1576126c061262b565b5b6126ca82612377565b9050602081019050919050565b82818337600083830152505050565b60006126f96126f4846126a6565b61268b565b90508281526020810184848401111561271557612714612626565b5b6127208482856126d7565b509392505050565b600082601f83011261273d5761273c612621565b5b813561274d8482602086016126e6565b91505092915050565b60006020828403121561276c5761276b612263565b5b600082013567ffffffffffffffff81111561278a57612789612268565b5b61279684828501612728565b91505092915050565b6127a8816122f2565b81146127b357600080fd5b50565b6000813590506127c58161279f565b92915050565b600080604083850312156127e2576127e1612263565b5b60006127f0858286016124b9565b9250506020612801858286016127b6565b9150509250929050565b600067ffffffffffffffff8211156128265761282561262b565b5b61282f82612377565b9050602081019050919050565b600061284f61284a8461280b565b61268b565b90508281526020810184848401111561286b5761286a612626565b5b6128768482856126d7565b509392505050565b600082601f83011261289357612892612621565b5b81356128a384826020860161283c565b91505092915050565b600080600080608085870312156128c6576128c5612263565b5b60006128d4878288016124b9565b94505060206128e5878288016124b9565b93505060406128f687828801612404565b925050606085013567ffffffffffffffff81111561291757612916612268565b5b6129238782880161287e565b91505092959194509250565b6000806040838503121561294657612945612263565b5b6000612954858286016124b9565b9250506020612965858286016124b9565b9150509250929050565b7f4e487b7100000000000000000000000000000000000000000000000000000000600052602260045260246000fd5b600060028204905060018216806129b657607f821691505b602082108114156129ca576129c961296f565b5b50919050565b7f4e487b7100000000000000000000000000000000000000000000000000000000600052601160045260246000fd5b6000612a0a826123e3565b9150612a15836123e3565b9250817fffffffffffffffffffffffffffffffffffffffffffffffffffffffffffffffff0483118215151615612a4e57612a4d6129d0565b5b828202905092915050565b7f4e487b7100000000000000000000000000000000000000000000000000000000600052601260045260246000fd5b6000612a93826123e3565b9150612a9e836123e3565b925082612aae57612aad612a59565b5b828204905092915050565b7f496e76616c696420416d6f756e74000000000000000000000000000000000000600082015250565b6000612aef600e83612333565b9150612afa82612ab9565b602082019050919050565b60006020820190508181036000830152612b1e81612ae2565b9050919050565b6000612b30826123e3565b9150612b3b836123e3565b9250827fffffffffffffffffffffffffffffffffffffffffffffffffffffffffffffffff03821115612b7057612b6f6129d0565b5b828201905092915050565b7f45786365656420616d6f756e7400000000000000000000000000000000000000600082015250565b6000612bb1600d83612333565b9150612bbc82612b7b565b602082019050919050565b60006020820190508181036000830152612be081612ba4565b9050919050565b7f416c7265616479204d696e746564000000000000000000000000000000000000600082015250565b6000612c1d600e83612333565b9150612c2882612be7565b602082019050919050565b60006020820190508181036000830152612c4c81612c10565b9050919050565b7f596f752063616e6e6f74206d696e74206e6f7700000000000000000000000000600082015250565b6000612c89601383612333565b9150612c9482612c53565b602082019050919050565b60006020820190508181036000830152612cb881612c7c565b9050919050565b7f596f75206861766520616c72656164792072657665616c656400000000000000600082015250565b6000612cf5601983612333565b9150612d0082612cbf565b602082019050919050565b60006020820190508181036000830152612d2481612ce8565b9050919050565b7f546f6b656e20646f6573206e6f74206578697374000000000000000000000000600082015250565b6000612d61601483612333565b9150612d6c82612d2b565b602082019050919050565b60006020820190508181036000830152612d9081612d54565b9050919050565b6000612da2826123e3565b9150612dad836123e3565b925082612dbd57612dbc612a59565b5b828206905092915050565b7f4f776e61626c653a206e6577206f776e657220697320746865207a65726f206160008201527f6464726573730000000000000000000000000000000000000000000000000000602082015250565b6000612e24602683612333565b9150612e2f82612dc8565b604082019050919050565b60006020820190508181036000830152612e5381612e17565b9050919050565b7f4f776e61626c653a2063616c6c6572206973206e6f7420746865206f776e6572600082015250565b6000612e90602083612333565b9150612e9b82612e5a565b602082019050919050565b60006020820190508181036000830152612ebf81612e83565b9050919050565b7f455243323938313a20726f79616c7479206665652077696c6c2065786365656460008201527f2073616c65507269636500000000000000000000000000000000000000000000602082015250565b6000612f22602a83612333565b9150612f2d82612ec6565b604082019050919050565b60006020820190508181036000830152612f5181612f15565b9050919050565b7f455243323938313a20696e76616c696420726563656976657200000000000000600082015250565b6000612f8e601983612333565b9150612f9982612f58565b602082019050919050565b60006020820190508181036000830152612fbd81612f81565b9050919050565b600081519050919050565b600082825260208201905092915050565b6000612feb82612fc4565b612ff58185612fcf565b9350613005818560208601612344565b61300e81612377565b840191505092915050565b600060808201905061302e6000830187612478565b61303b6020830186612478565b613048604083018561253b565b818103606083015261305a8184612fe0565b905095945050505050565b60008151905061307481612299565b92915050565b6000602082840312156130905761308f612263565b5b600061309e84828501613065565b91505092915050565b7f5061757361626c653a206e6f7420706175736564000000000000000000000000600082015250565b60006130dd601483612333565b91506130e8826130a7565b602082019050919050565b6000602082019050818103600083015261310c816130d0565b9050919050565b7f5061757361626c653a2070617573656400000000000000000000000000000000600082015250565b6000613149601083612333565b915061315482613113565b602082019050919050565b600060208201905081810360008301526131788161313c565b905091905056fe68747470733a2f2f697066732e696f2f697066732f516d6643545a354d6b464c673236345a7556665958363632546141506b6374756a735a613470616f5543726246342f68747470733a2f2f697066732e696f2f697066732f516d6357336257344c653873576b4567484c7858766351784675326e6638356e54344d516f6e5a56726f757069742fa2646970667358221220a796c1bbdd6fbc5210c0d011748c942eaea992a802f96ccbb0af54e87f60830f64736f6c6343000809003368747470733a2f2f697066732e696f2f697066732f516d515a59574c54424d784a59584247704c5352335a434a413165354c76466179434e7979644b3963635a44436a2f",
  "linkReferences": {},
  "deployedLinkReferences": {}
}